{
  "_format": "hh-sol-artifact-1",
  "contractName": "Predicate",
  "sourceName": "contracts/Predicate.sol",
  "abi": [
    {
      "inputs": [
        {
          "internalType": "address",
          "name": "nftContract",
          "type": "address"
        },
        {
          "internalType": "uint256",
          "name": "tokenId",
          "type": "uint256"
        },
        {
          "internalType": "address",
          "name": "expectedCurrentOwner",
          "type": "address"
        },
        {
          "internalType": "uint256",
          "name": "validAfter",
          "type": "uint256"
        }
      ],
      "name": "isReadyToTransfer",
      "outputs": [
        {
          "internalType": "uint256",
          "name": "",
          "type": "uint256"
        }
      ],
      "stateMutability": "view",
      "type": "function"
    }
  ],
  "bytecode": "0x608060405234801561001057600080fd5b506102df806100206000396000f3fe608060405234801561001057600080fd5b506004361061002b5760003560e01c80632487bfd314610030575b600080fd5b61004a600480360381019061004591906101d6565b610060565b604051610057919061024c565b60405180910390f35b60008142106100725760009050610135565b8473ffffffffffffffffffffffffffffffffffffffff16636352211e856040518263ffffffff1660e01b81526004016100ab919061024c565b602060405180830381865afa9250505080156100e557506040513d601f19601f820116820180604052508101906100e2919061027c565b60015b6100f25760009050610135565b8373ffffffffffffffffffffffffffffffffffffffff168173ffffffffffffffffffffffffffffffffffffffff160361012f576001915050610135565b60009150505b949350505050565b600080fd5b600073ffffffffffffffffffffffffffffffffffffffff82169050919050565b600061016d82610142565b9050919050565b61017d81610162565b811461018857600080fd5b50565b60008135905061019a81610174565b92915050565b6000819050919050565b6101b3816101a0565b81146101be57600080fd5b50565b6000813590506101d0816101aa565b92915050565b600080600080608085870312156101f0576101ef61013d565b5b60006101fe8782880161018b565b945050602061020f878288016101c1565b93505060406102208782880161018b565b9250506060610231878288016101c1565b91505092959194509250565b610246816101a0565b82525050565b6000602082019050610261600083018461023d565b92915050565b60008151905061027681610174565b92915050565b6000602082840312156102925761029161013d565b5b60006102a084828501610267565b9150509291505056fea26469706673582212205006d841db0a7d591360d7643c3c921944a85763a550c56114eaaa21dc32dbee64736f6c63430008140033",
  "linkReferences": {},
  "deployedLinkReferences": {}
}