{
  "_format": "hh-sol-artifact-1",
  "contractName": "Predicate",
  "sourceName": "contracts/Predicate.sol",
  "abi": [
    {
      "inputs": [
        {
          "internalType": "address",
          "name": "nftContract",
          "type": "address"
        },
        {
          "internalType": "uint256",
          "name": "tokenId",
          "type": "uint256"
        },
        {
          "internalType": "address",
          "name": "expectedCurrentOwner",
          "type": "address"
        },
        {
          "internalType": "uint256",
          "name": "validAfter",
          "type": "uint256"
        }
      ],
      "name": "isReadyToTransfer",
      "outputs": [
        {
          "internalType": "bool",
          "name": "",
          "type": "bool"
        }
      ],
      "stateMutability": "view",
      "type": "function"
    }
  ],
  "bytecode": "0x608060405234801561001057600080fd5b50610306806100206000396000f3fe608060405234801561001057600080fd5b506004361061002b5760003560e01c80632487bfd314610030575b600080fd5b61004a600480360381019061004591906101c7565b610060565b6040516100579190610249565b60405180910390f35b6000814210156100735760009050610126565b8473ffffffffffffffffffffffffffffffffffffffff16636352211e856040518263ffffffff1660e01b81526004016100ac9190610273565b602060405180830381865afa9250505080156100e657506040513d601f19601f820116820180604052508101906100e391906102a3565b60015b6100f35760009050610126565b8373ffffffffffffffffffffffffffffffffffffffff168173ffffffffffffffffffffffffffffffffffffffff16149150505b949350505050565b600080fd5b600073ffffffffffffffffffffffffffffffffffffffff82169050919050565b600061015e82610133565b9050919050565b61016e81610153565b811461017957600080fd5b50565b60008135905061018b81610165565b92915050565b6000819050919050565b6101a481610191565b81146101af57600080fd5b50565b6000813590506101c18161019b565b92915050565b600080600080608085870312156101e1576101e061012e565b5b60006101ef8782880161017c565b9450506020610200878288016101b2565b93505060406102118782880161017c565b9250506060610222878288016101b2565b91505092959194509250565b60008115159050919050565b6102438161022e565b82525050565b600060208201905061025e600083018461023a565b92915050565b61026d81610191565b82525050565b60006020820190506102886000830184610264565b92915050565b60008151905061029d81610165565b92915050565b6000602082840312156102b9576102b861012e565b5b60006102c78482850161028e565b9150509291505056fea2646970667358221220d0d3c9e923a3fa32be0a2294300f9d3c299d39b8474277971693a966dd9e0e0f64736f6c63430008140033",
  "linkReferences": {},
  "deployedLinkReferences": {}
}